:020000040800F2
:10000000D8110020A5030008AB010008AD010008CD
:10001000B1010008B5010008B901000800000000A6
:10002000000000000000000000000000BD0100080A
:10003000BF01000800000000C1010008C301000862
:10004000BF030008BF030008BF030008BF03000888
:10005000BF030008BF030008BF030008BF03000878
:10006000BF030008BF030008BF030008A12B00085E
:10007000BF030008BF030008BF030008BF03000858
:10008000BF030008BF030008BF030008BF03000848
:10009000BF030008BF030008BF030008BF03000838
:1000A000BF030008BF030008BF030008BF03000828
:1000B000BF030008632E0008BF030008BF03000849
:1000C000BF030008BF030008BF030008BF03000808
:1000D000BF0300083B290008BF030008BF03000856
:1000E000BF030008BF030008BF03000800F002F8C8
:1000F00000F04AF80AA090E8000C82448344AAF178
:100100000107DA4501D100F03FF8AFF2090EBAE875
:100110000F0013F0010F18BFFB1A43F0010318473B
:100120001884000038840000103A24BF78C878C1D1
:10013000FAD8520724BF30C830C144BF04680C60ED
:10014000704700000023002400250026103A28BF35
:1001500078C1FBD8520728BF30C148BF0B60704739
:10016000662906F05480782904F0D080002070477A
:100170001FB504F03BFC04000020002105F0B6F997
:10018000E0601FBD10B510BD04F038FD1146FFF74B
:10019000EFFF02F0B9FD04F056FD03B4FFF7F2FFE4
:1001A00003BC02F067FB000030BF704700BFFEE7F2
:1001B00000BFFEE700BFFEE700BFFEE770477047E5
:1001C000704770470CB50020019000906C480068A3
:1001D00040F480306A49086000BF6948006800F454
:1001E000003000900198401C0190009818B90198C7
:1001F000B0F5A06FF1D16248006800F4003010B192
:100200000120009001E0002000900098012843D1D7
:100210005C48006840F010005A49086008460068D1
:1002200020F0030008600846006840F00200086003
:10023000534840685249486008464068486008464C
:10024000406840F4806048600846406820F47C10B4
:1002500048600846406840F4E81048600846006876
:1002600040F08070086000BF4548006800F00070F2
:100270000028F9D04248406820F003004049486017
:100280000846406840F00200486000BF3C484068B3
:1002900000F00C000828F9D10CBD10B5FFF792FF53
:1002A00010BD10B53648006840F0010034490860C0
:1002B00008464068344908403149486008460068AB
:1002C000324908402E4908600846006820F4802022
:1002D00008600846406820F4FE0048604FF41F00A4
:1002E0008860FFF7DAFF4FF000602949086010BD11
:1002F00010B5002100200022214B5B6803F00C01A7
:1003000021B1042906D0082928D107E0214B224C2D
:10031000236027E01F4B204C236023E0184B5B68D1
:1003200003F47010164B5B6803F48032022303EB76
:10033000904022B9194B4343174C23600DE0104BFA
:100340005B6803F4003323B1144B4343124C236026
:1003500003E0104B4343104C236003E00D4B0E4C65
:10036000236000BF00BF064B5B68C3F303130C4C54
:10037000E15C094B1B68CB40074C236010BD0000BB
:1003800000100240002002400000FFF8FFFFF6FED0
:1003900008ED00E000127A000000002000093D0096
:1003A000040000200948804709480047FEE7FEE7AF
:1003B000FEE7FEE7FEE7FEE7FEE7FEE7FEE7FEE715
:1003C00004480549054A064B70470000A30200088F
:1003D000ED000008D80B0020D8110020D80D002017
:1003E000D80D002031490143314A1160704770B582
:1003F000002100230F22C47804B32D4C246804F498
:10040000E064C4F5E064210AC1F10403CA40447801
:1004100004FA03F18478144021430901254C06783D
:10042000A155047804F01F050124AC4005786D1136
:10043000AD0005F1E025C5F8004109E0047804F0BD
:100440001F050124AC401C4D0678761145F8264066
:1004500070BD1A4A0A400243154B1B1F1A607047B1
:1004600039B1134A121D12680243114B1B1D1A6049
:1004700006E00F4A121D126882430D4B1B1D1A60C5
:100480007047042808D14FF0E021096941F00401C8
:100490004FF0E022116107E04FF0E021096921F0FF
:1004A00004014FF0E0221161704700000000FA05DE
:1004B0000CED00E000E400E080E100E080FFFF1FC1
:1004C00010B50446CC48844208D10121042000F034
:1004D0002DFB0021042000F029FB46E0C7488442A0
:1004E00008D10121082000F021FB0021082000F0A4
:1004F0001DFB3AE0C248844208D10121102000F0DF
:1005000015FB0021102000F011FB2EE0BD488442B5
:1005100008D10121202000F009FB0021202000F05B
:1005200005FB22E0B848844208D10121402000F0B8
:10053000FDFA0021402000F0F9FA16E0B3488442A9
:1005400008D10121802000F0F1FA0021802000F084
:10055000EDFA0AE0AE48844207D10121801500F08F
:10056000E5FA0021A01500F0E1FA10BD10B5012157
:10057000084600F0DBFA0021012000F0D7FA10BD98
:100580002DE9F0410246002500260020002300242A
:10059000002791F803C00CF00F0591F803C00CF090
:1005A000100CBCF1000F03D091F802C04CEA050515
:1005B00091F800C0BCF1000F31D0146800202BE08E
:1005C0004FF0010C0CFA00F3B1F800C00CEA03067E
:1005D0009E4220D183004FF00F0C0CFA03F7BC436E
:1005E00005FA03FC4CEA040491F803C0BCF1280F9F
:1005F00006D14FF0010C0CFA00FCC2F814C00AE05E
:1006000091F803C0BCF1480F05D14FF0010C0CFA72
:1006100000FCC2F810C0401C0828D1D31460B1F807
:1006200000C0BCF1FF0F34DD546800202EE000F163
:10063000080C4FF0010808FA0CF3B1F800C00CEAFE
:1006400003069E4221D183004FF00F0C0CFA03F7F2
:10065000BC4305FA03FC4CEA040491F803C0BCF166
:10066000280F05D100F1080C08FA0CF8C2F8148024
:1006700091F803C0BCF1480F07D100F1080C4FF00E
:10068000010808FA0CF8C2F81080401C0828CED3E4
:100690005460BDE8F0814FF6FF7101800221817046
:1006A0000421C17070470246002093680B400BB1D3
:1006B000012000E0002070470146886880B2704742
:1006C00002460020D3680B400BB1012000E000205F
:1006D00070470146C86880B2704701617047416148
:1006E00070470AB1016100E041617047C160704725
:1006F0004FF480320A43826181618261826982693A
:10070000704702460020434B18684FF6807318402C
:1007100040EA021008433F4B186070473E49C861E9
:100720007047F0B50A46002300240021002500F0A0
:100730000046B6F1004F02D1364EF16901E0354E68
:100740007168C0F3034583B200F44016B6F5401F4C
:1007500008D121F070612F4E766826F070662D4F1B
:100760007E6012E000F48016B6F5801F06D10326E5
:1007700006FA05F4A14341F0706106E0460D36012A
:1007800003FA06F6B14341F0706122B1460D36011D
:1007900003FA06F6314300F00046B6F1004F02D1ED
:1007A0001C4EF16101E01B4E7160F0BD30B50022BE
:1007B0008B071C0F0F2303FA04F2164B08338C101F
:1007C00053F824309343134C08348D1044F82530EB
:1007D00023468C1053F824308C07240F00FA04F4BD
:1007E00023430C4C08348D1044F8253030BD0A49A1
:1007F000DC3108607047000000080140000C014037
:10080000001001400014014000180140001C01408C
:10081000002001400000014000002042DF48006845
:1008200040F00100DD49086008464068DC490840A6
:10083000DA49486008460068DA490840D749086044
:100840000846006820F4802008600846406820F4CC
:10085000FE0048604FF41F0088607047CF49096868
:1008600021F48031CD4A11601146096821F48021BC
:100870001160B0F5803F03D0B0F5802F0ED106E0B7
:10088000C649096841F48031C44A116007E0C34990
:10089000096841F4A021C14A116000E000BF00BF17
:1008A000704710B501460022002300204A11012A9A
:1008B00002D1BA4C236806E0022A02D1B74C236A5F
:1008C00001E0B64C636A01F01F02012494401C4011
:1008D0000CB1012000E0002010BD38B500200090D0
:1008E0000024002500BF3120FFF7DBFF05460098FC
:1008F000401C00900098B0F5A06F01D0002DF2D000
:100900003120FFF7CEFF08B1012400E0002420468B
:1009100038BD01460020A14A106820F0F80040EAE6
:10092000C10010607047A04908607047024600206F
:100930009A4B586820F47C1042EA01031843974B05
:100940005860704798490866704701460020934AEE
:10095000506820F003000843506070478F4840689B
:1009600000F00C007047014600208C4A506820F0CF
:10097000F00008435060704701460020874A5068E5
:1009800020F4E06008435060704701460020834A2D
:10099000506820F4605040EAC1005060704729B1AF
:1009A0007E4A527A02437D4B5A7204E07B4A527A65
:1009B00082437A4B5A7270477B49D831086070473E
:1009C00001460020754A506820F4404008435060BA
:1009D00070470021714A20321170704A82F820104D
:1009E000012802D004280AD104E001216B4A2032F8
:1009F000117005E00521694A2032117000E000BF46
:100A000000BF70476949086070476449096A01433B
:100A1000624A11627047654944390860704730B5D1
:100A200000210022002400235C4D6D6805F00C01BC
:100A300021B1042905D0082923D105E05C4D0560CA
:100A400022E05B4D05601FE0544D6D6805F47012A7
:100A5000524D6D6805F48034022505EB92421CB9B5
:100A6000544D554305600BE04C4D6D6805F4003561
:100A70001DB1504D5543056002E04D4D5543056095
:100A800002E04B4D056000BF00BF444D6D6805F0AE
:100A9000F0010909484D6B5C0568DD4045603F4D3C
:100AA0006D6805F4E061090A434D6B5C4568DD4003
:100AB00085603A4D6D6805F46051C90A3E4D6B5C26
:100AC0004568DD40C560354D6D6805F44041890BD2
:100AD0003A4D6B5CC568B5FBF3F5056130BD29B1D6
:100AE0002E4A526902432D4B5A6104E02B4A526947
:100AF00082432A4B5A61704729B1284A92690243BE
:100B0000264B9A6104E0254A92698243234B9A61FD
:100B1000704729B1214AD2690243204BDA6104E0CF
:100B20001E4AD26982431D4BDA61704729B11B4AC4
:100B3000D2680243194BDA6004E0184AD268824353
:100B4000164BDA60704729B1144A12690243134BFD
:100B50001A6104E0114A12698243104B1A6170470E
:100B600012494039086070470F49C86470470B4903
:100B7000C87170470948406A40F080700749486270
:100B8000704701460020054A92680A400AB10120D8
:100B900000E0002070470149887270470010024051
:100BA0000000FFF8FFFFF6FE0000424280044242D0
:100BB00000127A0000093D001400002024000020EB
:100BC00010B50446FB48844209D101218803FFF790
:100BD000ADFF00214FF48040FFF7A8FF32E0F64858
:100BE000844209D101214804FFF7ADFF00214FF4F1
:100BF0000030FFF7A8FF25E0F048844209D1012129
:100C00008804FFF7A0FF00214FF48020FFF79BFF2F
:100C100018E0EB48844209D10121C804FFF793FF93
:100C200000214FF40020FFF78EFF0BE0E5488442DF
:100C300008D101210805FFF786FF00214FF480103D
:100C4000FFF781FF10BD2DE9F04786B005460E463F
:100C50000024A24600BFA1460027B08900B100BF12
:100C60002F462C8A4CF6FF700440F08804432C82F7
:100C7000AC894EF6F3100440B0883189084371897D
:100C800008430443AC81AC8A4FF6FF400440B0896E
:100C90000443AC8201A8FFF7C2FEC648874202D1D6
:100CA000DDF810A001E0DDF80CA0A88900F40040F8
:100CB00040B10AEBCA0000EB0A1031684900B0FBF2
:100CC000F1F807E00AEBCA0000EB0A10316889006E
:100CD000B0FBF1F86420B8FBF0F0040120096421B6
:100CE00001FB1089A88900F4004040B1322000EBDC
:100CF000C900B0FBF1F000F00700044308E0322027
:100D000000EB09106421B0FBF1F000F00F00044388
:100D10002C8106B0BDE8F0874FF416510160002128
:100D20008180C18001810C21418100218181704736
:100D300010B502460020108A4FF2FF0318400B88BE
:100D40004C8823438C882343CC8823431843108248
:100D500010BD0021018041808180C180704721B198
:100D6000828942F40052828104E082894DF6FF7349
:100D70001A4082817047F0B5034600240026002502
:100D8000002040F66A17B94200D100BF1846C1F3EF
:100D9000421401F01F06012707FA06F5012C01D1C4
:100DA0000C3004E0022C01D1103000E014301AB1F4
:100DB00007682F43076002E00768AF430760F0BD94
:100DC0001AB1838A0B43838202E0838A8B43838236
:100DD0007047028A4FF6F0731A400282028A0A4371
:100DE0000282704782894FF2FF731A4082818289A2
:100DF0000A438281704721B1828942F002028281D6
:100E000004E082894FF6FD731A4082817047028A9E
:100E10004FF6DF731A400282028A0A430282704749
:100E200021B1028A42F48042028204E0028A4BF637
:100E3000FF731A4002827047C1F308028280704734
:100E400001468888C0F308007047818941F001019C
:100E500081817047028BD2B20283028B42EA012267
:100E600002837047028B02F47F420283028B0A43A3
:100E70000283704721B1828A42F02002828204E01C
:100E8000828A4FF6DF731A408282704721B1828ACC
:100E900042F01002828204E0828A4FF6EF731A4019
:100EA0008282704721B1828A42F00802828204E085
:100EB000828A4FF6F7731A408282704721B1828985
:100EC00042F40042828103E08289C2F30E028281F1
:100ED000704721B1828A42F40062828204E0828AF1
:100EE0004FF2FF731A4082827047828A4FF6FB737B
:100EF0001A408282828A0A438282704721B1828AA2
:100F000042F00202828204E0828A4FF6FD731A40A8
:100F10008282704702460020B1F5007F00D100BFF9
:100F200013880B400BB1012000E00020704701F452
:100F30000072B2F5007F00D100BFCA430280704743
:100F400070B50246002400230025002040F66A16F2
:100F5000B14200D100BFC1F3421501F01F030126C9
:100F600006FA03F3012D02D19689334006E0022DE3
:100F700002D1168A334001E0968A33400C120126D2
:100F800006FA04F41688344013B10CB1012000E0D5
:100F9000002070BD10B50022002340F66A14A14263
:100FA00000D100BF0A1201249440A3B2DC430480A4
:100FB00010BD0000003801400044004000480040DF
:100FC000004C00400050004010B50446FA488442EE
:100FD00008D101214015FFF7A9FD00216015FFF799
:100FE000A5FD17E0F548844208D101210015FFF75F
:100FF0009DFD00212015FFF799FD0BE0F04884428C
:1010000008D10121C803FFF791FD00214FF40040F2
:10101000FFF78CFD10BD30B502460020002350685C
:10102000E84C20400D790C6844EA052420435060C8
:101030009068E54C2040D1E902542C434D7944EAB4
:10104000450420439060D06A20F470000C7C641E3C
:10105000E4B2234340EA0350D06230BD0021016076
:10106000017141718160C16001210174704721B13A
:10107000826842F00102826003E0826822F001028D
:101080008260704721B1826842F48072826003E01E
:10109000826822F480728260704710B50023CBB260
:1010A0001AB144681C43446002E044689C434460B5
:1010B00010BD816841F00801816070470146002041
:1010C0008A6802F008020AB1012000E0002070479F
:1010D000816841F0040181607047014600208A6800
:1010E00002F004020AB1012000E00020704721B1A3
:1010F000826842F4A002826003E0826822F4A002C7
:1011000082607047014600208A6802F480020AB1BA
:10111000012000E00020704710B50A46002100239E
:10112000416821F46041531E41EA4331416010BDE2
:1011300021B1426842F40062426003E0426822F456
:10114000006242607047F0B504460D460020002161
:10115000092D11DDE068A5F10A0606EB4607072612
:1011600006FA07F18843A5F10A0606EB460603FADC
:1011700006F10843E0600CE0206905EB450707260F
:1011800006FA07F1884305EB450603FA06F1084322
:101190002061072A0FDA606B561E06EB86071F26B2
:1011A00006FA07F18843561E06EB860605FA06F195
:1011B0000843606322E00D2A0FDA206BD61F06EB8E
:1011C00086071F2606FA07F18843D61F06EB860618
:1011D00005FA06F10843206310E0E06AA2F10D066B
:1011E00006EB86071F2606FA07F18843A2F10D06D3
:1011F00006EB860605FA06F10843E062F0BD21B170
:10120000826842F48012826003E0826822F48012D5
:10121000826070470146C86C80B2704766484C30A7
:101220000068704721B1426842F48062426003E086
:10123000426822F480624260704721B1426842F401
:101240008052426003E0426822F48052426070475C
:101250000A460021816821F4E04111438160704712
:1012600021B1826842F40042826003E0826822F485
:1012700000428260704721B1826842F402128260AB
:1012800003E0826822F40212826070470146002067
:101290008A6802F400120AB1012000E000207047C1
:1012A000F0B504461546002000220026092911DD6C
:1012B000E068A1F10A0707EB470C072707FA0CF2D1
:1012C0009043A1F10A0707EB470703FA07F210431F
:1012D000E0600CE0206901EB410C072707FA0CF2F3
:1012E000904301EB410703FA07F210432061A06B22
:1012F000C0F30156EF1C06F1010CA7EB0C0707EB3E
:10130000870C1F2707FA0CF29043EF1C06F1010C23
:10131000A7EB0C0707EB870701FA07F21043A0635E
:10132000F0BD10B50A4600210023816B21F4401165
:10133000531E41EA0351816310BD08B50023009399
:101340000090009B0B440093009B1A6008BD08B5F9
:10135000024600200090009201F12800009B1844F2
:1013600000900098006880B208BD0A4600214168DC
:10137000164B1940114341607047416282627047C9
:101380000A460021416821F01F0111434160704766
:1013900040B109490831096841F40001064A0832A0
:1013A000116007E004490831096821F40001024A8C
:1013B00008321160704700000024014000280140FD
:1013C000003C0140FFFEF0FFFDF7F1FFFFFD3FFF96
:1013D0000246002013680B400BB1012000E0002002
:1013E0007047CA430260704770B502460020002370
:1013F00000240B125568CEB205EA060415681D409C
:1014000015B10CB1012000E0002070BD00220A12CD
:10141000D34303607047000001684FF6FE7211402D
:1014200001600021016041608160C1608D49884296
:1014300008D18C490839496841F00F01894A083AB6
:1014400051608AE087491431884208D185490839BA
:10145000496841F0F001834A083A51607DE08149D2
:101460002831884208D17F490839496841F47061C0
:101470007C4A083A516070E07A493C31884208D190
:1014800078490839496841F47041764A083A516010
:1014900063E074495031884208D17249083949687B
:1014A00041F470216F4A083A516056E06D49643149
:1014B000884208D16B490839496841F47001694A8A
:1014C000083A516049E067497831884208D1654956
:1014D0000839496841F07061624A083A51603CE05D
:1014E0006149884206D1011F096841F00F01021FBE
:1014F000116032E05C491431884208D15A49091F11
:10150000096841F0F001584A121F116025E0564960
:101510002831884208D15449091F096841F4706193
:10152000514A121F116018E04F493C31884208D1DE
:101530004D49091F096841F470414B4A121F11605F
:101540000BE049495031884207D14749091F0968D2
:1015500041F47021444A121F1160704710B50022F7
:10156000026847F6F0739A430C6A8B6823430C6950
:1015700023434C6923438C692343CC6923434C6A3E
:1015800023438C6A23431A430260CB6843600B6891
:1015900083604B68C36010BD0021016041608160C1
:1015A000C160016141618161C16101624162816229
:1015B000704721B1026842F00102026004E0026853
:1015C0004FF6FE731A40026070471AB103680B436E
:1015D000036002E003688B4303607047416070471B
:1015E0000146486880B2704701460020002201F0A1
:1015F00080531BB11C4B083B1A6802E0194B083B97
:101600001A6802EA01030BB1012000E000207047D4
:1016100000F0805119B11449091F086002E0114916
:1016200008394860704701460020002201F08053CD
:101630001BB10D4B083B1A6802E00A4B083B1A68C5
:1016400002EA01030BB1012000E00020704700F026
:10165000805119B10449091F086002E001490839A5
:1016600048607047080002400804024010B5044674
:10167000FE48844208D10121C014FFF757FA002127
:10168000E014FFF753FAC4E0B4F1804F08D1012110
:101690000846FFF758FA00210120FFF754FAB8E096
:1016A000F348844208D101210220FFF74CFA0021BF
:1016B0000220FFF748FAACE0EE48844208D101214D
:1016C0000420FFF740FA00210420FFF73CFAA0E0D5
:1016D000E948844208D101210820FFF734FA0021AB
:1016E0000820FFF730FA94E0E448844208D1012151
:1016F0001020FFF728FA00211020FFF724FA88E0D5
:10170000DF48844208D101212020FFF71CFA002184
:101710002020FFF718FA7CE0DA48844208D1012142
:101720004014FFF703FA00216014FFF7FFF970E09F
:10173000D548844209D10121C804FFF7F7F90021F7
:101740004FF40020FFF7F2F963E0D048844209D15A
:1017500001210805FFF7EAF900214FF48010FFF797
:10176000E5F956E0CA48844209D101214805FFF74E
:10177000DDF900214FF40010FFF7D8F949E0C54822
:10178000844208D101214020FFF7DDF900214020EB
:10179000FFF7D9F93DE0C048844208D101218020FB
:1017A000FFF7D1F900218020FFF7CDF931E0BB48E8
:1017B000844208D101218015FFF7C5F90021A01549
:1017C000FFF7C1F925E0B648844209D10121080498
:1017D000FFF7ACF900214FF48030FFF7A7F918E0CC
:1017E000B048844209D101214804FFF79FF9002144
:1017F0004FF40030FFF79AF90BE0AB48844208D170
:1018000001218804FFF792F900214FF48020FFF7AF
:101810008DF910BD00220288944B98420ED0994B4E
:1018200098420BD0B0F1804F08D0914B984205D030
:10183000904B984202D0904B984204D14FF68F7350
:101840001A404B881A438D4B984207D08C4B9842D4
:1018500004D04FF6FF431A40CB881A4302808B888E
:1018600083850B880385814B98420BD0854B98422A
:1018700008D08B4B984205D08A4B984202D08A4BB5
:10188000984201D10B7A038601238382704770B599
:10189000002400220023058C4FF6FE763540058497
:1018A000028C8388048B4FF68F752C40B51E2C401C
:1018B0000D882C43751E2A400D892A434D882A43E2
:1018C0006A4DA8420BD06F4DA84208D0744DA84273
:1018D00005D0744DA84202D0734DA84213D14FF6E3
:1018E000F7752A404D892A434FF6FB752A408D88AB
:1018F0002A434FF6FF652B404FF6FF552B408D894D
:101900002B43CD892B4383800483CD888586028435
:1019100070BD70B5002400220023058C4FF6EF76D1
:1019200035400584028C8388048B48F6FF752C4073
:101930004FF6FF452C400D884FF6FF7606EA052549
:101940002C434FF6DF752A400D8906EA05152A4318
:101950004D8806EA05152A43444DA84202D0494D58
:10196000A8421DD14FF67F752A404D894FF6FF766C
:1019700006EA05152A434FF6BF752A408D8806EA08
:1019800005152A434FF6FF352B404FF2FF752B40CC
:101990008D8906EA85052B43CD8906EA85052B430B
:1019A00083800483CD880587028470BD70B50024D0
:1019B00000220023058C4FF6FF6635400584028C1B
:1019C0008388848B4FF68F752C404FF6FC752C4026
:1019D0000D882C434FF6FF552A400D894FF6FF76B0
:1019E00006EA05252A434D8806EA05252A431F4DA8
:1019F000A84202D0234DA8421DD14FF2FF752A40C4
:101A00004D894FF6FF7606EA05252A434FF6FF3546
:101A10002A408D8806EA05252A434EF6FF752B409D
:101A20004DF6FF752B408D8906EA05152B43CD89B0
:101A300006EA05152B4383808483CD88858702843D
:101A400070BD70B5002200230024058C4EF6FF7691
:101A500035400584038C8488828B48F6FF752A40C4
:101A60004FF6FF452A400D8820E00000002C014081
:101A70000004004000080040000C0040001000403E
:101A80000014004000340140004C0140005001406F
:101A90000054014000180040001C0040002000409D
:101AA0000040014000440140004801404FF6FF76ED
:101AB00006EA05252A434DF6FF752B400D8906EAF7
:101AC00005352B434D8806EA05352B43FA4DA842D0
:101AD00002D0FA4DA84208D14BF6FF752C408D89F3
:101AE0004FF6FF7606EA85152C4384808283CD88E5
:101AF000A0F84050038470BD828B4FF2FF331A4030
:101B00008283828B4FF6FF7303EA01231A43828399
:101B10007047F0B50C461546002200210026078CC0
:101B20004EF6FF7C07EA0C070784828B018C4FF688
:101B3000FF7707EA043640F6FF473A404FF6FF7753
:101B400007EA05273A434FF6FF7707EA03373A4398
:101B5000D94FB8420ED0D94FB8420BD0B0F1804F18
:101B600008D0D74FB84205D0D64FB84202D0D64F92
:101B7000B84206D14DF6FF77394046F480573943D5
:101B800005E047F6FF57394044F4805739438283D4
:101B90000184F0BD828B4FF6F3731A408283828BEF
:101BA0000A4382837047F0B50C4615460022002197
:101BB0000026078C4FF6FF6C07EA0C070784828B20
:101BC000018C4FF6FF7707EA04264FF60C773A4070
:101BD0004FF6FF7707EA03172F433A43B64FB84251
:101BE0000ED0B64FB8420BD0B0F1804F08D0B44FF2
:101BF000B84205D0B34FB84202D0B34FB84206D175
:101C00004FF6FF57394046F48077394305E04FF2ED
:101C1000FF57394044F48077394382830184F0BD13
:101C2000028B4FF2FF331A400283028B4FF6FF7391
:101C300003EA01231A4302837047F0B50C461546A8
:101C4000002200210026078C4FF6EF7C07EA0C07E4
:101C50000784028B018C4FF6FF7707EA041640F6E3
:101C6000FF473A404FF6FF7707EA03373A434FF60C
:101C7000FF7707EA05273A438F4FB8420ED08F4FC0
:101C8000B8420BD0B0F1804F08D08D4FB84205D08C
:101C90008C4FB84202D08C4FB84206D14FF6DF7756
:101CA000394046F01007394305E04FF65F77394079
:101CB00044F01007394302830184F0BD028B4FF6D4
:101CC000F3731A400283028B0A4302837047F0B514
:101CD0000C46154600220021068C4FF6FE773E404A
:101CE0000684028B018C4FF60C7632407E1C06EA8D
:101CF00003162E433243704EB0420ED06F4EB042A8
:101D00000BD0B0F1804F08D06D4EB04205D06D4E73
:101D1000B04202D06C4EB04206D14FF6FD76314053
:101D200044F00106314305E04FF6F576314044F0CA
:101D30000106314302830184F0BD70B505460C46AF
:101D40005D4885420ED05D4885420BD0B5F1804F8D
:101D500008D05B48854205D05A48854202D05A488F
:101D6000854200D100E000BF208850B92389A288B5
:101D700061882846FFF7ABFFE1882846FFF79EFF02
:101D800025E0208804280AD12389A2886188284672
:101D9000FFF753FFE1882846FFF742FF17E020884E
:101DA00008280AD12389A28861882846FFF7FBFE0C
:101DB000E1882846FFF7EEFE09E02389A2886188C2
:101DC0002846FFF7A6FEE1882846FFF795FE70BD7E
:101DD0002DE9F04105460C4600260127608808B928
:101DE000022600E00026A088012801D1022700E099
:101DF00001272088A0B92389A28861882846FFF797
:101E000066FFE1882846FFF759FF23893A463146A5
:101E10002846FFF712FFE1882846FFF701FF13E08D
:101E20002389A28861882846FFF707FFE1882846B2
:101E3000FFF7F6FE23893A4631462846FFF747FF6B
:101E4000E1882846FFF73AFFBDE8F0810A884B8811
:101E50001A438B881A43CB881A430B891A434B8940
:101E60001A438B891A43A0F8442070474FF6FF713C
:101E7000818000210180C180418001727047002172
:101E8000018041808180C180018141818181C18146
:101E90007047002101804180012181800021C180A3
:101EA000018170470021018041808180C1800181D2
:101EB0004181818170470000002C014000340140C5
:101EC0000004004000080040000C004021B10288DE
:101ED00042F00102028004E002884FF6FE731A40CD
:101EE0000280704731B1B0F8442042F40042A0F8BB
:101EF000442005E0B0F84420C2F30E02A0F84420CC
:101F000070471AB183890B43838102E083898B4335
:101F1000838170478182704741EA0203A0F848300C
:101F200070471AB183890B43838102E083898B4315
:101F30008381704701894FF6F87211400181704723
:101F40000A46002101894FF68F7319401143018120
:101F5000704730B504460D4629462046FFF7F0FF8E
:101F6000208940F00700208130BD2DE9F041044672
:101F70000D4616461F46602D06D13B4601223146CE
:101F80002046FFF75AFE05E03B4601223146204637
:101F9000FFF79DFE29462046FFF7D2FF208940F03B
:101FA00007002081BDE8F08130B50C460021018991
:101FB000C9B24FF6FF7505EA0325154325432943AA
:101FC000018130BD2DE9F04105460E461746984681
:101FD000002443463A4631462846FFF7E5FF2C8960
:101FE0004FF6F870044044F007044FF68F70044039
:101FF00044F070042C81BDE8F081F0B504460D4634
:1020000016461F463B46324629462046FFF7CCFF80
:10201000208940F480402081F0BD01858282704794
:102020000A46002101884FF68F7319401143018041
:102030007047F0B50C4615461E46002100220023CD
:102040000189028B038C4FF6F877394021434FF614
:10205000FC473A4040F201173A434FF6DD773B40E8
:102060004FF6FF7707EA06172F433B4301810283B0
:102070000384F0BD0A460021018B4FF68F7319408F
:102080001143018370470A460021018B48F6FF7314
:1020900019404FF6FF7303EA022319430183704787
:1020A0000A460021818B4FF68F73194011438183BB
:1020B00070470A460021818B48F6FF7319404FF69E
:1020C000FF7303EA022319438183704721B1028819
:1020D00042F08002028004E002884FF67F731A40CB
:1020E0000280704721B1828842F00402828004E0BD
:1020F00082884FF6FB731A408280704721B1828834
:1021000042F00802828004E082884FF6F7731A409A
:102110008280704721B1828842F00102828004E00F
:1021200082884FF6FE731A40828070470A4600216B
:10213000018B4FF6F77319401143018370470A462C
:102140000021018B4FF2FF7319404FF6FF7303EA32
:1021500002231943018370470A460021818B4FF601
:10216000F77319401143818370470A460021818B20
:102170004FF2FF7319404FF6FF7303EA022319432E
:10218000818370470A460021018B4FF6FB7319408B
:102190001143018370470A460021018B4FF6FF333C
:1021A00019404FF6FF7303EA022319430183704776
:1021B0000A460021818B4FF6FB731940114381833E
:1021C00070470A460021818B4FF6FF3319404FF6C6
:1021D000FF7303EA02231943818370470A460021F3
:1021E000018B4FF67F7319401143018370470A46F4
:1021F0000021018BC1F30E014FF6FF7303EA0223A6
:102200001943018370470A460021818B4FF67F7383
:1022100019401143818370470A460021818BC1F325
:102220000E014FF6FF7303EA0223194381837047BF
:102230000A460021018C4FF6FD73194011430184B9
:1022400070470A460021018C4FF6F773194011437D
:10225000018470470A460021018C4FF6DF73194054
:102260004FF6FF7303EA02131943018470470A46CD
:102270000021018C4FF67F7319404FF6FF7303EA7C
:1022800002131943018470470A460021018C4FF65E
:10229000FF5319404FF6FF7303EA022319430184E9
:1022A00070470A460021018C4FF2FF7319404FF628
:1022B000FF7303EA02231943018470470A46002191
:1022C000018C4DF6FF7319404FF6FF7303EA02339A
:1022D00019430184704730B5002301248C40A3B218
:1022E000048C9C430484048C02FA01F5ADB22C43A7
:1022F000048430BD30B5002304248C40A3B2048C88
:102300009C430484048C02FA01F5ADB22C4304848E
:1023100030BD70B503460020002418461830012552
:102320008D40ACB21D8CA5431D8409B1082909D18B
:1023300000EB6100056825F0700505600568154330
:1023400005600EE00D1FC5F34E052844056825F411
:10235000E045056005684FF6FF7606EA022635433C
:10236000056070BD21B1028842F00202028004E0E3
:1023700002884FF6FD731A400280704721B102882F
:1023800042F00402028004E002884FF6FB731A4018
:102390000280704721B1828842F08002828004E08E
:1023A00082884FF67F731A408280704702884FF60A
:1023B000F7731A40028002880A43028070478288BD
:1023C0004FF68F731A40828082880A43828070475A
:1023D00002894FF6F8731A40028102890A4302818A
:1023E000704702894FF67F731A40028102890A43BF
:1023F000028170478184704781857047818670476C
:102400000187704781877047A0F8401070470288A5
:102410004FF6FF431A40028002880A430280704749
:102420000146888E70470146088F70470146888FA5
:1024300070470146B1F8400070470146888C7047EC
:102440000146088D704702460020138A0B400BB1ED
:10245000012000E000207047CA430282704730B577
:102460000246002000230024158A05EA010395890D
:1024700005EA010413B10CB1012000E0002030BDD9
:10248000CA430282704700004FF0E021096921F041
:1024900004014FF0E0221161C21700EB5272C2F347
:1024A000C7022B4B1A701946097801EB4102C2EBA7
:1024B000C1114FF6FF7202EAC101264A118070472E
:1024C0000146234A12784A434FF0E0235A61002222
:1024D0009A611A46126942F001021A6100BF4FF078
:1024E000E022106900F001021AB100F48032002AE3
:1024F000F5D04FF0E022126922F001024FF0E02304
:102500001A6100229A6170470146124A12884A43B2
:102510004FF0E0235A6100229A611A46126942F094
:1025200001021A6100BF4FF0E022106900F00102C1
:102530001AB100F48032002AF5D04FF0E02212697F
:1025400022F001024FF0E0231A6100229A617047E5
:10255000280000202A000020B94A11880A1313031A
:10256000C1F3032203EB0223C1F3031203EB0212B4
:1025700001F00F031A4491B24D22027043224270BF
:10258000552282704322C270612202717022427110
:102590003A2282714FF47A7291FBF2F232B14FF427
:1025A0007A7291FBF2F23032C27101E02022C271E4
:1025B0004FF47A7291FBF2F302FB1312642392FB45
:1025C000F3F230320272642291FBF2F302FB131237
:1025D0000A2392FBF3F2303242720A2291FBF2F3A9
:1025E00002FB1312303282724B22C27262220273D9
:1025F000704770B50446934805682A4692A1204664
:1026000001F048FE70BD934A0A4002438D4B0833E7
:102610001A60704710B504462046FDF7E3FE10BD72
:10262000F8B504460D4617461E463046FFF7F2FF42
:102630008DF800708DF801408DF8025001208DF862
:1026400003006846FDF7D3FEF8BD00B500208249BF
:102650000861C8601420486100208861C86108468C
:10266000006840F001000860084640687B49084067
:102670007949486008460068794908407649086009
:102680000846006820F4802008600846406820F46E
:10269000FE0048600020886000214FF00060FFF7D6
:1026A000B2FF00BD10B567481030006840F004006C
:1026B0006449103108606848C06940F0805066493C
:1026C000C8616848406840F48070664948600846C0
:1026D000006840F0040008600846006840F002000E
:1026E0000860FDF761FD10BD5F4856490C31086078
:1026F00070475949896941F00101574A91615B4925
:10270000496821F0E061594A51601146496841EA3F
:1027100000615160704730B504460025FFF795FF12
:102720004D48006840F480304B49086000BF4A487B
:102730000068400C0028FAD04FF480604649486099
:10274000A01EC4B20846406840EA8440486008467B
:10275000406840F4803048604548006840F03200EE
:10276000434908603C48006840F080703A4908607E
:1027700000BF39480068400E0028FAD0364840684B
:1027800040F002003449486005E033484068C0F337
:10279000870505F00305022DF7D130BD01460A205B
:1027A00091FBF0F200FB12100A2291FBF2F240EAD8
:1027B0000210C0B27047014601F00F000A1102EB8F
:1027C000820200EB4200C0B2704701464FF47A70BB
:1027D00091FBF0F000034FF47A7291FBF2F302FBED
:1027E0001312642392FBF3F240EA02201A4691FB93
:1027F000F2F302FB13120A2392FBF3F240EA0210F7
:102800001A4691FBF2F302FB1312104380B2704799
:10281000014608134FF47A725043C1F3032202EBCE
:10282000C20303EB021200EB8200C1F3031202EBBE
:10283000820200EB420001F00F02104480B27047A8
:10284000E0F7FF1F00ED00E04350552049443A25D2
:102850003038580080FFFF1F001002400000FFF8D2
:10286000FFFFF6FE007000400400FA050000014082
:102870000020024000BF704700BF5D4A128802F08E
:102880004002002AF9D0C2B2594B1B1D1A80704772
:1028900010B586B0044656480C30008840F480706D
:1028A00053490C3108800846008840F02000088019
:1028B0004FF4A063252203210846FFF7B1FE012152
:1028C00044F20400FEF718F94948FEF779F94FF48D
:1028D0000070ADF8140003208DF8160018208DF854
:1028E000170005A94348FDF74BFE4FF48060ADF893
:1028F000140004208DF8170005A93E48FDF740FE9E
:1029000001940020ADF80800ADF80A00ADF80C0005
:10291000ADF810000C20ADF80E0001A93448FEF708
:1029200092F9012240F225513148FEF724FA0121A3
:102930002F48FEF714FA06B010BD10B540F225512D
:102940002B48FEF7FDFA002850D02948FEF778FA08
:10295000C4B22948008800F40040002846D1264827
:10296000008800F4804038B30A2C1ED00D20224984
:102970000988C1F30D01214A50541F480088401CAA
:102980001D49088008460088C0F30D0011460C540C
:1029900019480088401C18490880084600884BF6F2
:1029A000FF7108401449088020E01348008840F473
:1029B00000401149088019E00D2C06D10E4800880E
:1029C00040F480400C49088010E00B480088C0F3B8
:1029D0000D000A490C5408480088401C064908802C
:1029E000084600883E2801DD0020088010BD000058
:1029F0000038014000080140300000205400002051
:102A000008B501210420FEF777F80220ADF8000098
:102A100000208DF8030003208DF802006946EB4882
:102A2000FDF7AEFD08BD0EB501210220FEF771F8DD
:102A300040F21710ADF804000020ADF80000ADF82A
:102A40000600ADF802006946E148FEF7E3FE2021EA
:102A5000DF48FFF7B4FC0121DD48FFF737FA0EBD70
:102A600008B50B208DF8000002208DF80100012030
:102A70008DF802008DF803006846FDF7B8FC0220CF
:102A8000FEF7E5FD01220221D248FEF79EFD08BDBA
:102A900000B58BB001210846FEF721F8CD48FEF7BE
:102AA000BBFCCD480090CD480190002002904FF42F
:102AB00080700390002004908020059040000690D4
:102AC00080000790202008900002099000200A90C2
:102AD0006946C048FEF742FD0121BE48FEF769FD88
:102AE000FFF7BEFFBD48BE4908600BB000BD00B592
:102AF00085B001214802FDF7FFFF4FF48040FDF74C
:102B00005FFFB5484C38FEF75FFA002000908DF863
:102B100004008DF805004FF400200290002003907F
:102B200001208DF810006946AB484C38FEF773FA67
:102B300001231A461946A8484C38FEF704FB012128
:102B4000A5484C38FEF79EFA0121A3484C38FEF701
:102B50008EFAA1484C38FEF7ACFA00BF9E484C38BC
:102B6000FEF7ACFA0028F9D19B484C38FEF7B0FAD2
:102B700000BF99484C38FEF7B0FA0028F9D101217E
:102B800095484C38FEF73BFB05B000BD10B5FFF78C
:102B900037FFFFF748FFFFF77BFFFFF7A8FF10BDE8
:102BA00010B50220FEF73FFD28B101208D490870C5
:102BB0000220FEF74CFD10BD2DE9F04F8BB04FF019
:102BC000000A00200A900990089000246AE08648D4
:102BD00030F8240007B2844850F82400000C0FFAA3
:102BE00080F8384603F0A6F94FF08741079003F0CC
:102BF000CDF983464FF08E4103F0BAF805464046C2
:102C000003F098F94FF08741079003F0BFF983462E
:102C10004FF08E4103F0ACF806463146304603F0E3
:102C2000B5F929460190284603F0B0F900900199C2
:102C300003F03CF8834603F00DF8CDE9020102F001
:102C40002EFC0022694BCDE9040102F097FCCDE98E
:102C5000060102F061FC81464FF08F41484603F0C7
:102C600095F9834603F046F9614941F82400084686
:102C700050F82400504508D9CDF828A009980890AC
:102C8000084650F824A009940AE0594850F8241046
:102C90000A98814204D9564850F824000A900894B2
:102CA000601C84B2802C92DB5149089851F82000B6
:102CB0005049086050480068096808444E49086057
:102CC00047480068401C464908600BB0BDE8F08FDB
:102CD0000146002008E0414A32F810201204474B18
:102CE00043F82020421C90B2FF28F4DD704710B555
:102CF0000020FFF7EDFF4FF4807240493A4800F0A2
:102D0000CDFFFFF759FF10BD0EB5FFF73FFF4FF4A2
:102D1000E130FFF7BDFD4820FFF7B6FB00F0E2F819
:102D200000F0BAFE4FF6FF7080231A460021009093
:102D3000084600F0D1F9642000F02DF945E029485B
:102D40000078002841D0012026490870FFF7CFFF06
:102D500023480068642810DB27480068642190FB42
:102D6000F1F0274908600020234908601C490860E9
:102D700024480068401C2349086010204FF6FF716A
:102D80004FF47842CDE9002102901D48008882B2BC
:102D900003231E21482000F007FD10204FF6FF718D
:102DA0004FF47842CDE9002102901648008882B2A3
:102DB00003231E21242000F0F7FC002000E0401C2B
:102DC000FF28FCDD002007490870B8E70008014033
:102DD00000040040080002404C2401409400002000
:102DE00034000020440000209406002000007040C1
:102DF00094080020480000203800002094020020A1
:102E00003C000020400000207FB505460C46012113
:102E10000220FDF77EFEADF80850ADF8044000201A
:102E2000ADF80A00ADF8060001A92648FEF7F2FC4D
:102E3000012211462348FFF764F81D208DF8000099
:102E400000208DF8010003208DF8020001208DF88C
:102E500003006846FDF7CBFA01211A48FFF736F860
:102E60007FBD70B501211748FFF7F9FA40B3164846
:102E7000FEF7D0F9044603F075F81449144A1268B5
:102E800041F82200124A126851F8220002F0E2FED4
:102E9000044622460B460FA001F0F0F90C480068EA
:102EA000401C0B49086008460068382804D10020FF
:102EB000086001200A49086001210248FFF7E0FA92
:102EC00070BD00000004004000240140940A00206E
:102ED0004C0000204144433A252E32660D0A000082
:102EE0005000002008B501210820FDF705FE4FF431
:102EF0007040ADF8000010208DF8030003208DF81D
:102F0000020069467148FDF73BFB4FF470416F4882
:102F1000FDF7E3FB08BD002000E0401C0028FCD0CA
:102F2000704770B504464FF480416848FDF7D5FB03
:102F30004FF400416548FDF7D0FB4FF40041634872
:102F4000FDF7CDFB00251EE004F4004028B14FF44E
:102F500000515E48FDF7C1FB04E04FF400515B48AF
:102F6000FDF7BDFBFFF7D7FF4FF480415748FDF752
:102F7000B6FBFFF7D0FF4FF480415448FDF7ADFB9F
:102F80006400681CC5B2102DDEDB4FF400414F48D1
:102F9000FDF7A3FB70BD70B504464FF480514B485C
:102FA000FDF79DFB44F4885500261CE04FF480415A
:102FB0004648FDF794FB05F4004028B14FF400515A
:102FC0004248FDF78AFB04E04FF400513F48FDF70B
:102FD00086FB6D004FF480413C48FDF77EFBFFF718
:102FE0009AFF701CC6B2102EE0DB4FF480513748B8
:102FF000FDF773FB70BD2DE9F04F85B005460E4619
:1030000093461C464FF080413148CDE902102F46CF
:10301000B04600222F4B3846414602F0AFFA074631
:10302000884638464146DDE9022302F02FFC074678
:1030300088463846414602F0F9FB0190DDF80490DD
:10304000C9F30D0901984FEAA03ACAF30D0A0E9888
:1030500040F4404004904FF48070FFF762FF4FF45B
:103060000450FFF75EFFBBF1000F0CD149F480491B
:103070004AF4804A4846FFF754FF5046FFF751FF95
:103080000498FFF74EFFBBF1010F0CD149F4004942
:103090004AF4004A4846FFF744FF5046FFF741FF15
:1030A0000498FFF73EFF1CB942F20200FFF739FF18
:1030B000022C03D142F22800FFF733FF012C02D18A
:1030C0006003FFF72EFF05B0BDE8F08F000C014054
:1030D000E17A644180842E412DE9F04706460F468F
:1030E00014461D46DDF820A0681E83B2601E82B221
:1030F0003946304600F0AFFCB8460EE0B14606E077
:10310000504600F091FC09F101001FFA80F9A14539
:10311000F6DB08F101001FFA80F8A845EEDBBDE8F8
:10312000F08770B504460D4616462B4622462946C2
:10313000204600F090FC304600F076FC70BD2DE992
:10314000FF4F85B081468A4600200390834607984A
:10315000A0EB09040898A0EB0A06CDF80890CDF87A
:1031600004A0002C01DD012705E00CB9002702E0D6
:103170004FF0FF376442002E02DD4FF0010806E0F9
:1031800016B94FF0000802E04FF0FF386642B44233
:1031900001DD254600E03546002004901EE0019A3E
:1031A00091B2029A90B2129AFFF7BBFF03982044A3
:1031B0000390B3440398A84205DD0398401B039095
:1031C000029838440290AB4504DDABEB050B019847
:1031D000404401900498401C80B20490691C0498FB
:1031E0008842DCDB09B0BDE8F08F2DE9F8430546E5
:1031F0000E4617469846089C33463A4631462846BE
:103200000094FFF79CFF43462A4631462846009427
:10321000FFF795FF43463A46414628460094FFF79C
:103220008EFF43463A46314638460094FFF787FF03
:10323000BDE8F8832DE9F04706460F4690469946CB
:103240000025444641E07A1B91B2321B90B24A46B7
:10325000FFF767FF7A1B91B2321990B24A46FFF727
:1032600060FF3A1991B2721B90B24A46FFF759FFBC
:103270003A1B91B2721B90B24A46FFF752FF7A197D
:1032800091B2321990B24A46FFF74BFF3A1B91B206
:10329000721990B24A46FFF744FF3A1991B2721977
:1032A00090B24A46FFF73DFF7A1991B2321B90B2B5
:1032B0004A46FFF736FF6D1C05FB05F004FB0401D1
:1032C00008FB08F0814200DD641EA542BBDDBDE8BD
:1032D000F0872DE9FE4F0646894692469B460D9C97
:1032E00000962046E11704EB5171C910614389B281
:1032F000019105200290002565E005EB8510F94954
:1033000011F810009AF80010884259D105EB851089
:10331000F44901EB400040789AF8011088424FD1FF
:1033200009EB0400401E83B23019401E82B24946A8
:10333000304600F090FB00273FE04FF0000836E0F9
:103340000E9898B905EB8510E64901EB4000801C0A
:10335000C05D012101FA08F1084018B1584600F09B
:1033600063FB20E00C9800F05FFB1CE005EB851090
:10337000DC4901EB4000801CC05D012101FA08F12D
:10338000084020B15A4649463046FFF7CAFE701C35
:1033900086B20098301AA04205D1009E09F10100C2
:1033A0001FFA80F906E008F1010000F0FF08B8F10B
:1033B000080FC5DB00BF781CC7B201988742BCDB91
:1033C00000BF681C85B20298854296DBBDE8FE8F7F
:1033D0002DE9FE4F0646894692469B460D9C009677
:1033E0002046E11704EB5171C910614389B2019184
:1033F0000520029000256DE005EB850000EB4510EF
:10340000B94911F810009AF8001088425FD105EB15
:10341000850000EB4510B44901EB400040789AF874
:103420000110884253D109EB0400401E83B23019C9
:10343000401E82B24946304600F00DFB002743E0B3
:103440004FF000083AE00E98A8B905EB850000EBB4
:103450004510A54901EB4000801CC05D012101FA27
:1034600008F1084018B1584600F0DEFA22E00C9846
:1034700000F0DAFA1EE005EB850000EB45109A49F2
:1034800001EB4000801CC05D012101FA08F10840F9
:1034900020B15A4649463046FFF743FE701C86B2BB
:1034A0000098301AA04205D1009E09F101001FFAD0
:1034B00080F906E008F1010000F0FF08B8F1080FFC
:1034C000C1DB00BF781CC7B201988742B8DB00BFE0
:1034D000681C85B2029885428EDBBDE8FE8F2DE91F
:1034E000FE4F0646894692469B460D9C0096204616
:1034F000E11704EB5171C910614389B201910520B4
:103500000290002565E005EB0510784911F81000E0
:103510009AF80010884259D105EB0510734901EB68
:10352000400040789AF8011088424FD109EB04001E
:10353000401E83B23019401E82B24946304600F028
:103540008AFA00273FE04FF0000836E00E9898B95D
:1035500005EB0510654901EB4000801CC05D0121B1
:1035600001FA08F1084018B1584600F05DFA20E071
:103570000C9800F059FA1CE005EB05105B4901EBD3
:103580004000801CC05D012101FA08F1084020B113
:103590005A4649463046FFF7C4FD701C86B2009873
:1035A000301AA04205D1009E09F101001FFA80F9EE
:1035B00006E008F1010000F0FF08B8F1080FC5DBD4
:1035C00000BF781CC7B201988742BCDB00BF681CF3
:1035D00085B20298854296DBBDE8FE8F2DE9FE4F4D
:1035E0008046894615469A46DDE90D470C9E2AE03D
:1035F000102C09D153462A4649464046CDE9014799
:103600000096FFF76CFF19E0182C09D153462A46A3
:1036100049464046CDE901470096FFF7D9FE0DE047
:10362000202C09D153462A4649464046CDE9014758
:103630000096FFF74EFE01E0BDE8FE8FAD1C08EBE3
:1036400004001FFA80F828780028D1D100BFF3E7E2
:103650002DE9FF4F83B005468A461746119CAB46BD
:10366000204604EBD071C1F347063046F11706EB54
:103670005171C910614389B20191A7F12000C7B20D
:103680000AEB0400401E83B2A819401E82B25146C4
:10369000284600F0E0F94FF0000954E0102C06D164
:1036A000134800EB071010F8090002900BE0202CE3
:1036B00006D1104800EB871010F80900029002E0D4
:1036C00007B0BDE8F08F4FF0000834E01298B8B9A9
:1036D000012000FA08F00299084068B1069800F04D
:1036E000A3F924E0DE8100086C800008C27F000896
:1036F0001262000802680008109800F095F916E0C0
:10370000012000FA08F00299084020B151462846ED
:10371000069AFFF706FD681C85B2A5EB0B00B042C8
:1037200005D15D460AF101001FFA80FA06E008F1B2
:10373000010000F0FF08B8F1080FC7DB00BF09F176
:1037400001001FFA80F901988145A7DB00BFB7E7A8
:103750002DE9FE4F06460F4614469846DDE90D5A00
:10376000DDF8309010E0CDE9015ACDF800902278D4
:10377000434639463046FFF76BFF284605EBD071CC
:1037800006EB61018EB2641C20780028EBD1BDE805
:10379000FE8F10B50246012000E050430B1EA1F140
:1037A0000104E1B2F9D110BD2DE9FF4F85B0074604
:1037B00091461D46DDE913A600200490304606EB35
:1037C000D071C1F3470B002434E0281B401EC1B266
:1037D0000A20FFF7DEFFB9FBF0F00A21B0FBF1F29F
:1037E00001FB12080498A0B9681EA04211DDB8F1CF
:1037F000000F0CD1002004FB0B71CDE900A6029054
:1038000088B22022129B0699FFF722FF10E00120C8
:103810000490002008F13001CAB204FB0B71CDE91D
:1038200000A6029088B2129B0699FFF711FF00BF15
:10383000601CC4B2AC42C8DB09B0BDE8F08F2DE912
:10384000FF4F85B0074690461C46DDE9139630468B
:1038500006EBD071C1F3470B3A49404602F096FBA4
:10386000039002F047FB80B20490002531E0601B1A
:10387000401EC1B20A20FFF78CFF0499B1FBF0F0A3
:103880000A21B0FBF1F201FB120AA01EA84210D1DE
:103890000020A11E01FB0B71CDE90096029088B2B9
:1038A0002E22129B0699FFF7D3FE681CC5B2601C3E
:1038B000C4B200200AF13001CAB205FB0B71CDE998
:1038C0000096029088B2129B0699FFF7C1FE681C11
:1038D000C5B2A542CBDB09B0BDE8F08F2DE9F05FA2
:1038E0000746884615461E46DDF82890002408EB5A
:1038F0000600401E83B27819401E82B24146384607
:1039000000F0A9F8A24619E04FF0000B10E019F8FA
:10391000140000F083F8012101EB440119F80100C3
:1039200000F07CF8601C84B20BF101001FFA80FBF0
:10393000B345ECDB0AF101001FFA80FAAA45E3DB8C
:10394000BDE8F09F0000C84208B501210420FDF742
:10395000D3F8A820ADF8000010208DF80300032054
:103960008DF802006946CA48FCF70AFEA821C8483B
:10397000FCF7B3FE01210820FDF7BEF840F6020077
:10398000ADF8000010208DF8030003208DF8020030
:103990006946C048FCF7F4FD40F60201BD48FCF75B
:1039A0009CFE01211020FDF7A7F82020ADF80000B3
:1039B00010208DF8030003208DF802006946B648F8
:1039C000FCF7DEFD2021B448FCF787FE08BD70B58A
:1039D00004460221AF48FCF782FE002517E00821CB
:1039E000AB48FCF77CFE04F0800020B12021A84801
:1039F000FCF773FE03E02021A548FCF770FE0821C8
:103A0000A348FCF76AFE6006040E681CC5B2082DC8
:103A1000E5DB02219F48FCF760FE70BD10B504464F
:103A20002046FFF7D4FF10BD10B504462012FFF763
:103A3000CEFFE0B2FFF7CBFF10BD10B5044620214A
:103A40009548FCF74CFE2046FFF7C1FF2021924825
:103A5000FCF743FE10BD2DE9F04104460D46164625
:103A60001F462A20FFF7E9FFA11C88B2FFF7DCFF01
:103A7000B11C88B2FFF7D8FF2B20FFF7DEFFE91C4F
:103A800088B2FFF7D1FFF91C88B2FFF7CDFF2C20D9
:103A9000FFF7D3FFBDE8F08110B5FFF755FF802198
:103AA0007B48FCF71CFE6420FEF72EFD8021784841
:103AB000FCF713FE6420FEF727FD4FF40061754804
:103AC000FCF70BFE6420FEF71FFD1120FFF7B5FF8A
:103AD0007820FEF719FDB120FFF7AFFF0220FFF7B6
:103AE0009DFF3520FFF79AFF3620FFF797FFB220A2
:103AF000FFF7A3FF0220FFF791FF3520FFF78EFFAE
:103B00003620FFF78BFFB320FFF797FF0220FFF768
:103B100085FF3520FFF782FF3620FFF77FFF022069
:103B2000FFF77CFF3520FFF779FF3620FFF776FFA0
:103B3000B420FFF782FF0320FFF770FFC020FFF7DC
:103B40007CFFA220FFF76AFF0220FFF767FF8420B7
:103B5000FFF764FFC120FFF770FFC520FFF75EFF8E
:103B6000C220FFF76AFF0D20FFF758FF0020FFF784
:103B700055FFC320FFF761FF8D20FFF74FFF2A207D
:103B8000FFF74CFFC420FFF758FF8D20FFF746FFDB
:103B9000EE20FFF743FFC520FFF74FFF0A20FFF796
:103BA0003DFF3620FFF749FFC820FFF737FFE02031
:103BB000FFF743FF1220FFF731FF1C20FFF72EFF16
:103BC0001020FFF72BFF1820FFF728FF3320FFF707
:103BD00025FF2C20FFF722FF2520FFF71FFF2820BD
:103BE000FFF71CFF2820FFF719FF2720FFF716FF1C
:103BF0002F20FFF713FF3C20FFF710FF0020FFF7F7
:103C00000DFF0320FFF70AFF0320FFF707FF102037
:103C1000FFF704FFE120FFF710FF1220FFF7FEFE81
:103C20001C20FFF7FBFE1020FFF7F8FE1820FFF71F
:103C3000F5FE2D20FFF7F2FE2820FFF7EFFE2320F0
:103C4000FFF7ECFE2820FFF7E9FE2820FFF7E6FE4D
:103C50002620FFF7E3FE2F20FFF7E0FE3B20FFF7D3
:103C6000DDFE0020FFF7DAFE0320FFF7D7FE03207A
:103C7000FFF7D4FE1020FFF7D1FE3A20FFF7DDFE5C
:103C80000520FFF7CBFE2920FFF7D7FE10BD00006F
:103C900000080140000C0140001001402DE9F04FE8
:103CA0004FF0000C4FF0000301EB1C6EBEF9025008
:103CB000BEF900400EF5807EBEF90290BEF900808C
:103CC0000EF5807EBEF90270BEF900600EF5807EB2
:103CD000BEF902B0BEF900A00EF5807ED044D944F2
:103CE000A8EB4A0AA9EB4B0B4FEAA4044FEAA5053F
:103CF00004EBA60405EBA705A4EB6606A5EB670796
:103D000004EBA80405EBA905A4EB6808A5EB690979
:103D100006EBAB06A7EBAA07A6EB6B0B07EB6A0A51
:103D2000458020F8044B478020F8046BA0F80290EF
:103D300020F8048BA0F802A020F804BB03F10103D3
:103D400093FAA3FC402BAFD1A0EB82014FF01003FC
:103D500012090FF2361000F1000006B403EB430C19
:103D60006144A2F5803202EB8332B1F90250B1F91D
:103D70000040A1EB0301B0F902B0B0F900A000F1DE
:103D80000400A5EB040E0EFB0BFC0AEB4B0E05FB2F
:103D90000ACB04FB0ECAB1F90250B1F90040A1EB05
:103DA0000301B0F90290B0F9008000F10400A5EB26
:103DB000040E0EFB09FC08EB490E05FB08C904FBC9
:103DC0000EC8B1F90250B1F90040A1EB0301B0F9FE
:103DD0000270B0F9006000F10400A5EB040E0EFBC8
:103DE00007FC06EB470E05FB06C704FB0EC6B1F940
:103DF0000250B1F9004001F10001D044D944A8EBD0
:103E00004A0AA9EB4B0B4FEAA4044FEAA50504EBC1
:103E1000264405EB2745A4EBE636A5EBE73704EB94
:103E2000284405EB2945A4EBE838A5EBE93906EB76
:103E30002B46A7EB2A47A6EBEB3B07EBEA3A4D8074
:103E40000C8019444F800E801944A1F80290A1F80B
:103E500000801944A1F802A021F804BBB2F5803219
:103E600083DA03EB430C6144A2F101025FEA024EE4
:103E700018BFA0EB0C007FF476AF06BC4FEA8303BB
:103E800092087FF46AAFBDE8F08F00400000004068
:103E90000000004000005DDD213BA3227E180000F1
:103EA000412D7EA5412D0000412D00C000405DDD6B
:103EB00082E75DDD213B7EA5412D004000000040F2
:103EC000000000400000AA2A94126B3946064932CD
:103ED0007C0CA8118E2349327C0CA3227E1821F77A
:103EE0007931AA2A9412A8118E235DDD213BA322E9
:103EF0007E180000412D95C6B13F461A2B1E58EE84
:103F00003735BEB4C53EA8118E235DDD213B63A9C4
:103F10007138DF089A28B7CDC53E7EA5412D000037
:103F2000412D00C0004063A92B1E21F77931BEB49A
:103F3000C53EBEB47C0C58EE373561AC213B95C60E
:103F4000BAF9BAE571383BA737355DDD82E75DDD4B
:103F5000213B7EA5412D21F766D756D53F3D3BA796
:103F60008E23A811C9CAB7CDC53E61AC7E18AA2A56
:103F7000C1C295C6B13FBEB47C0C004000000040F9
:103F80000000004000001E3BB504693E9201C83CA1
:103F90002403EB356409C83C24036B3946066C30B6
:103FA000060E1E3BB504EB356409AA2A94126B3940
:103FB000460649327C0CAE240917AF37D607882E47
:103FC0008D0F7E1E5D1BEB356409AA2A94122418FE
:103FD0008C1F1E34F10AB3269015A8118E23493286
:103FE0007C0CA3227E18140B60276C30060E7E1EFC
:103FF0005D1B7104FB2A882E8D0F461A2B1EC7FDF0
:104000005A2E9D2C1211FE15E72021F77931AA2A8C
:104010009412A8118E2387F05334B2281314480D3C
:10402000202602EAE536B3269015DF089A289CE39D
:104030002B39AE2409177104FB2A5DDD213BA32235
:104040007E180000412D4ED7C53C9320EF198FFB01
:104050006C2F78D1153E7E1E5D1B21F77931E2CBA6
:104060000F3F641CC61CB8F2683395C6B13F461AB0
:104070002B1E58EE373597C1FB3F24188C1F02EAE0
:10408000E536F0BCEC3FFE15E720BAE57138A6B87E
:10409000853FD5133D2282E1DB39BEB4C53EA81170
:1040A0008E235DDD213B40B1AF3D790FDA244DD940
:1040B000423C2EAE423C480D202656D53F3D8EABAD
:1040C000823A140B602778D1153E63A97138DF0856
:1040D0009A28B7CDC53EB1A71236A906CE2915CA72
:1040E0004F3F78A668337104FB2A95C6B13FBCA543
:1040F00076303902212C38C3EC3F7EA5412D0000DB
:10410000412D00C00040BCA5CE29C7FD5A2EF0BCF1
:10411000EC3F78A620268FFB6C2F09BAB13FB1A7E0
:104120003D2257F976304DB74F3F63A92B1E21F73B
:104130007931BEB4C53E8EABEF19ECF474325EB289
:10414000153E2EAE9015B8F268332DB03F3D40B10C
:10415000121187F053342EAE423CBEB47C0C58EEA4
:10416000373561AC213BA6B8D6072BEC1236C8AA6E
:10417000DB39F0BC240302EAE53663A9713897C144
:104180006EFEDCE7B03734A8E53695C6BAF9BAE575
:1041900071383BA73735E2CB0FF59CE32B3978A676
:1041A000683378D173F082E1DB39EDA579314ED7F0
:1041B000EDEB6DDF823A99A56C2F5DDD82E75DDD69
:1041C000213B7EA5412D9CE33AE352DBB63B99A50A
:1041D000FB2A02EA19DF4DD9423CEDA59A2887F067
:1041E00026DB4ED7C53C78A6202621F766D756D5C4
:1041F0003F3D3BA78E23C7FDDFD363D3AF3D34A83C
:10420000E720710494D078D1153E63A92B1E140BBE
:104210008CCD94CF723EC8AA5D1BA811C9CAB7CD78
:10422000C53E61AC7E18241850C8E2CB0F3F2EAEBD
:1042300090157E1E25C615CA4F3F2DB09412AE2490
:104240004AC451C8853F5EB28D0FAA2AC1C295C625
:10425000B13FBEB47C0C6C308EC1E2C4D43F4DB7CC
:104260006409EB35B1C038C3EC3F09BA46061E3BC2
:104270002CC097C1FB3FF0BC240370470FB4044926
:1042800010B503AA029800F09FFB10BC5DF814FB68
:104290002C0000200FB41CB5074B06AA7B446946CE
:1042A0000090059800F077FB0020694600F086FB3F
:1042B0001CBC5DF814FB00001D07000070B504462F
:1042C00085690068C10601D5302600E02026C007B8
:1042D00007D070BDD4E9012130469047206A401CC8
:1042E00020626D1EF6D570BD70B5044685690078F4
:1042F000C00707D170BDD4E9012120209047206A72
:10430000401C20626D1EF6D570BD000070B50446DD
:104310000D4621461068AFF300802188090502D5BB
:104320000F4A7A4402E00E4A7A440E32002104F128
:10433000240305E000F00F060009965D5E54491C59
:104340000028F7D120780023000704D5702D02D073
:1043500009B1022311322046BDE8704000F0ADB82B
:10436000424100002DE9F05F894604464FF0000A03
:10437000DFF824B1FB44C0F820A02046E16888475C
:1043800000287DD0252806D0D4E901219047206A55
:10439000401C2062F1E700255F462046E16888471F
:1043A0002028064607DB312E05D2B81910F8200C5C
:1043B00008B10543F1E7A80701D525F00405C4F8C5
:1043C0001CA00027C4F818A02A2E09D0304601F0FE
:1043D0005FF838B304EB8708303EC8F8186019E07E
:1043E00059F8041B204604EB87029161E168884775
:1043F000012F064618D1E069002820DA25F02005B3
:104400001DE0D8F8180000EB800006EB40003038C3
:10441000C8F818002046E1688847064601F038F8D9
:104420000028EED1012F0AD02E2E08D12046E168B7
:1044300088477F1C0646022F45F02005C4DBA06993
:10444000002803DA404245F00105A061E80701D0E9
:1044500025F01005A6B1A6F14100192802D8203692
:1044600045F400654A463146204625604D46FBF737
:1044700077FE60B1012807D0ED1D25F0070000E0B0
:1044800007E000F1080978E705F1040975E730460F
:104490007AE7206ABDE8F09F184100007047704736
:1044A0007047704710B500F0A5FA006810BD10B550
:1044B000044600F09FFA046010BD2DE9F0470D4658
:1044C00099469246044600F124080168880604D5FE
:1044D000E06921F01001216000E00120A84201DD27
:1044E000471B00E00027A1697A1902EB0900081AAE
:1044F000A0612078C00602D42046FFF7DFFE002628
:1045000008E0D4E901211AF806009047206A401C0F
:10451000761C20624E45F4DB2078C0060AD5204682
:10452000FFF7CCFE06E0D4E9012130209047206A55
:10453000401C2062381EA7F10107F4DC07E0D4E933
:10454000012118F805009047206A401C2062281EAF
:10455000A5F10105F3DC2046FFF7C6FE2078000632
:1045600002D50220BDE8F0870120FBE770472DE966
:10457000FF4F0C461E464FF0FF378BB0D2E90001CB
:10458000DDF860800A908A46C1F30A5505B93D46B8
:10459000002108464FF00000BAF1000F00F440007F
:1045A00005DA00EB80004FF4400101EA50004FEAC9
:1045B0009059B9F1010F00DDB9460A9850EA4A0056
:1045C0000ED044F61050A5F2FF3545432F14B8F134
:1045D000000F1ED07542291E1EDDC9F100021CE02D
:1045E000B8F1010F4FF0000001D0302103E0F24399
:1045F00005E02154401CB042FBDB30460022002184
:1046000021540B99C1F80880C1E900200FB0BDE822
:10461000F08FBD1B6D1CDEE74A4600DA694206A832
:1046200000F072FA06AB93E8070003AB83E80700DB
:1046300050460A9900F050FB8DE80700A0F50050A5
:104640001F3800900398002D0ADD42F21F014A46F0
:104650000844002303A90390684600F0B9FD09E06F
:10466000A0F500504A461F38002303A9039068466E
:1046700000F0C3FD8DE807000004000C03D04FF0EC
:10468000FF30410800E01046B8F1000F03D00022CF
:10469000009215461EE0751E05D400F0AFF93032C9
:1046A00062556D1EF9D5B3460122084302D000229F
:1046B0007F1C04E02078302801D100227F1E002AD0
:1046C000099784D01DE0112D07DA00F097F93032F8
:1046D00062556D1C50EA0102F5D1084302D00098E2
:1046E000C8B10EE00021681E05E0235C625C6354E3
:1046F0002254401E491C8142F7DBAB46A81B401EDA
:104700000990002004F80B000B98099AC0F8088063
:10471000C0E9002B7AE711264FF0000857E72DE992
:10472000F04F88460446D21D22F0070191B0D1E92E
:104730000001CDE90A0100F097FE02460B98C00F78
:1047400001D02D2007E02068810701D52B2002E051
:10475000202101EAC000032A099001D0072A05DBC5
:1047600003464146204600F08FF90BE12078800691
:1047700001D5E06900E00620B8F1650F814606D05A
:10478000B8F1660F18D0B8F1670F70D131E0002092
:10479000B9F1110F009001DB112301E009F10103D0
:1047A0000AAA01A90CA8FFF7E2FEDDE90C700026B9
:1047B00009F10105834647E001204B4600904FF088
:1047C00000470AAA01A90CA8FFF7D1FEDDE90DB048
:1047D0000C995D46002610B909F101000D18B9EBDE
:1047E000050003D4C0F1FF3609F10105A5EB09006E
:1047F0002BE0B9F1010F01DA4FF001090020B9F106
:10480000110F0090484601DD112300E003460AAA7B
:1048100001A90CA8FFF7ABFEDDE90C704D460026A0
:104820008346207800070AD4AB4500DA5D4601A82C
:10483000012D04DD411911F8011C302907D04F4525
:1048400002DA17F1040F04DA012082460FE06D1E30
:10485000EEE7002F02DCED1B3E4403E0781CA8428B
:1048600000DD7D1CB81B00F1010A4FF000472078E5
:10487000000703D4AA4501DB4FF0FF3A0021B7F14E
:10488000004F0DF143088DF8431024D002202B2354
:10489000002F01DA7F422D230A21021EA0F1010020
:1048A00000DC5FB197FBF1FC97FBF1F201FB1C7C94
:1048B00017460CF1300C08F801CDEEE7A8F1010025
:1048C00003702188090501D5452100E06521A0F18B
:1048D000010800F8011C09980FA9A1EB0807FF1DAA
:1048E00000B10120411901EBEA70A1693844081AAE
:1048F000401EA0612078C00602D42046FFF7DEFCEF
:10490000099828B1D4E901219047206A401C20620F
:104910002078C00622D52046FFF7D0FC1EE0002EEE
:1049200004DBB34502DD01A8805D00E03020D4E95E
:1049300001219047206A401C2062761CAAF10100E8
:104940005FEA000A0AD100F051F8C0680168405CD3
:10495000D4E901219047206A401C2062281EA5F15D
:104960000105DCDC07E0D4E9012118F8010B9047D0
:10497000206A401C2062381EA7F10107F3DC2046A4
:10498000FFF7B2FC032011B041E6000001694A1CA8
:1049900002610878704700B58FB0CDE90131002180
:1049A000059105497944CDE9031011466846FFF7A2
:1049B000D9FC0FB000BD0000E5FFFFFF0A6802F858
:1049C000010B0A6070470000074B70B50D467B4431
:1049D000FFF7E1FF0446284600F008F910B14FF058
:1049E000FF3070BD204670BDA7DEFFFF0048704756
:1049F000940B002000487047740B002030B5B0F1D4
:104A00000A024FEA900E71F100034EEA817EB0EB8C
:104A10000E0061EB91014FEA101E4EEA017E10EB91
:104A20000E0041EB11114FEA102E4EEA016E10EB11
:104A30000E0041EB11214FEA104E4EEA014E10EBF1
:104A40000E0041EB1141401841F100014FEAD00046
:104A500040EA41704FEAD10110EB80054FEA810432
:104A600044EA907444EB01046D1944EB0404521BB6
:104A7000A3414FF0000348BF0A3200D530BD401CAF
:104A800041F1000130BD00002DE9F0411F46044610
:104A900003260168072A01F4006004DB08B116A5AB
:104AA00005E016A503E008B115A500E015A521F065
:104AB00010002060A069C01EA0610FB1401EA0615F
:104AC0002046FFF7FBFB4FB1D4E901213846904760
:104AD000206A401C2062C01C206206E0206AFAE7BF
:104AE000D4E9012115F8010B9047761EF8D2204633
:104AF000FFF7FAFBBDE8F0814E414E006E616E009B
:104B0000494E4600696E66002DE9F047814616461B
:104B10008AB0354878440DC88DE80D003248784495
:104B2000801C03AC0DC884E80D0041F69B3008449E
:104B3000372190FBF1F290FBF1F5A5F1800501FB27
:104B400012041B3C02D56442012000E00020DFF883
:104B500098A080460027FA44AAF1BE0A0EE0E007BA
:104B60000AD03246684607EB470101230AEB810170
:104B700000F043FB8DE8070064107F1C002CEED191
:104B8000194F7F44AE3F19E0E80715D007EB04103A
:104B90000DF1180A90E80E008AE80E00C068F04295
:104BA00001D1981908903246012306A903A800F004
:104BB00024FB03AB83E807006D10641C002DE3D1D8
:104BC0004FF0010332466946B8F1000F03A802D046
:104BD00000F0FEFA01E000F010FBC9E90001C9F89D
:104BE00008200AB0BDE8F087083A0000007B00F01A
:104BF0008000704700487047740B00207546FFF72F
:104C0000F9FFAE4605006946534620F00700854689
:104C100018B020B5FBF7D4FBBDE820404FF00006EC
:104C20004FF000074FF000084FF0000B21F0070194
:104C3000AC46ACE8C009ACE8C009ACE8C009ACE8D7
:104C4000C0098D46704710B50446AFF3008020467A
:104C5000BDE81040FBF7A1BA4FF0013C50F8042B1F
:104C600051F8043B9A4221D1A2EB0C03934313EA7F
:104C7000CC1317D150F8042B51F8043B9A4215D1AC
:104C8000A2EB0C03934313EACC130BD150F8042B83
:104C900051F8043B9A4209D1A2EB0C03934313EA67
:104CA000CC13DBD04FF00000704700BFD01A01BA20
:104CB000B1FA81F101F0180122FA01F0CB40C1F103
:104CC0002001DBB2C0B2C01A2CFA01F3D11A914311
:104CD00011EAC311E6D170475FEA400C08BF91F0BA
:104CE000000F4FEA8C234FEAC12243EA51514FEAA9
:104CF0001C5018BF00F5F0404FEA300018BF41F0DB
:104D000000415FEA6C5C00F02980BCF1FF3F08BF06
:104D100040F080407047130C06BF12044FF0100C97
:104D20004FF0000C130E04BF12020CF1080C130F0D
:104D300004BF12010CF1040C930F04BF92000CF19C
:104D4000020CD30F04BF52000CF1010C11464FF0BE
:104D50000002A0F11F00A0EB0C00704711F0004F03
:104D600008BF704731F000413FF4D5AF0B0C06BFD0
:104D700009044FF0100C4FF0000C0B0E04BF090299
:104D80000CF1080C0B0F04BF09010CF1040C8B0F84
:104D900004BF89000CF1020CCB0F04BF49000CF1D9
:104DA000010CCCF12003A0EB0C0022FA03F302FA71
:104DB0000CF241EA030100F10100704720F07F4C42
:104DC00080EA030023F07F47ACEB070303F57C5335
:104DD00000F0004003F1FF032DE980494FEA154B35
:104DE00009B44FEA144325EA0B4E24EA03480FF2B4
:104DF000042606EB132749083E785FEA320203FBDC
:104E00000667C7F5000707FB06F64FEA54374FEA77
:104E1000D64606F1020607FB066CCCF1005C4FEAB1
:104E20001C472CEA074C07FB06F40CFB06F504EBC9
:104E300015464FEA961634BF00204FF000404FEA67
:104E4000D13706FB07FC4FEA1C4C0CFB0BF7D21BBF
:104E500003FB0CF761EB07010CFB0EF7B0EB07400F
:104E600072EB17420CFB08F734BFA2EB0742B2EB20
:104E7000074261EB17414FEA0C444FEA910706FBEA
:104E800007FC4FEA1C4C0CFB0BF7B0EBC74072EB76
:104E9000573203FB0CF734BFA2EBC742B2EBC74259
:104EA00061EB57310CFB0EF7B0EBC70072EB57729A
:104EB0000CFB08F734BFA2EBC702B2EBC70261EBF1
:104EC0005771039F4FEA816141EA921104EBCC04D0
:104ED0004FEAD1374FEA826206FB07FC42EA9012A2
:104EE0004FEA80604FEA1C4C0CFB0BF7D21B03FB14
:104EF0000CF761EB07010CFB0EF7B0EB074072EB10
:104F000017420CFB08F734BFA2EB0742B2EB074293
:104F100061EB17414FEA8C554FEA910704EB9C2453
:104F200006FB07FC4FEA1C4C0CFB0BF7B0EBC74031
:104F300072EB573203FB0CF734BFA2EBC742B2EB64
:104F4000C74261EB57310CFB0EF7B0EBC70072EBB9
:104F500057720CFB08F734BFA2EBC702B2EBC702D3
:104F600061EB577115EB4C254FEA816141EA9211D3
:104F70004FEA82624FEAD13742EA901206FB07FC01
:104F800044F100044FEA80604FEA1C4C0CFB0BF725
:104F9000D21B03FB0CF761EB07010CFB0EF7B0EB28
:104FA000074072EB17420CFB08F734BFA2EB074235
:104FB000B2EB074261EB174115EB1C154FEA81314B
:104FC00041EA92414FEA823242EA90424FEA80300F
:104FD0004FEA0C7644F1000448EA03434EEA0B48DA
:104FE0004FF0000EB2EB080C71EB030724BF6246D2
:104FF00039464EEB0E0E4FF0000B0018524149415E
:105000004BEB0B0BB2EB080C71EB03077BF1000BC6
:1050100024BF624639464EEB0E0E4FF0000B0018CF
:10502000524149414BEB0B0BB2EB080C71EB030700
:105030007BF1000B24BF624639464EEB0E0E51EA5F
:10504000020718BF46F0010616EB0E7655F1000276
:1050500054F1000103D5BDE88901BDE80088BDE831
:105060008901BDE80048B619524141EB0101A3F1A5
:105070000103704780807F7E7D7C7B7A79787776AC
:1050800076757473727171706F6E6E6D6C6C6B6A25
:105090006A696868676666656464636362616160C3
:1050A000605F5F5E5E5D5D5C5C5B5B5A5A59595840
:1050B00058575756565555555454535352525251AA
:1050C000515050504F4F4F4E4E4D4D4D4C4C4C4B00
:1050D0004B4B4A4A4A494949484848474747474647
:1050E0004646454545444444444343434342424283
:1050F00042414141002B9C4630D477002BD01CB557
:105100004FEA370703B44FF010004FF01001BAF127
:10511000000F06D0BCF1000FDCBF40F0080040F0EB
:1051200008014FF000000FBCBDE810400BF1010B6F
:10513000BBF1010F08BF5FEA170722BF12F101029E
:1051400011F101014FF0004143F1000300F0004074
:1051500043EA00007047F9D35708D0E746EA06460D
:1051600013F1400F4FEA16461FDD13F1200FDFBF8A
:1051700016430A46002120335B42BED0C3F120070C
:1051800046EA064602FA07F74FEA164646EA0706D7
:10519000C3F1200722FA03F201FA07F721FA03F11B
:1051A0004FF0000342EA0702A7E746EA020646EA92
:1051B00006464FEA164646EA0106BCBF46EA0646E0
:1051C000360C4FF000034FF000024FF0000194E75F
:1051D0002DE9804C9A46934670B491E8380007C890
:1051E00031EA400C48BF34EA430C03D5FFF7E6FD33
:1051F000FFF780FFF0BCBDE8008C2DE9804C9A469B
:10520000934670B491E8380007C810F0804F08BF8B
:1052100013F0804F03D100F005F8FFF76BFFF0BCEF
:10522000BDE8008C20F07F4780EA030023F07F4C2C
:1052300007EB0C03A3F57C5300F00040A3F1FE0341
:1052400092F0000F00F0B38095F0000F00F077802F
:105250002DE901494FEA11404FEA144621EA00487E
:1052600000FB06FC24EA064708FB06F607FB08F8E5
:1052700000FB07F718EB06484CEB164C4FEA124BB5
:1052800018EB07484FEA15464CEB174022EA0B4E45
:105290000BFB06FC25EA06470EFB06F607FB0EFE97
:1052A0000BFB07F71EEB064E4CEB164C4FF00006BF
:1052B0001EEB074E4CEB174B18EB0B0840F10000B0
:1052C00018EB0E0B58EB000840F100008F1A4FF05E
:1052D00000013CBFC943661B14BFB5EB040C0021A1
:1052E0003CBFC943F61B4FEA17444EEA8E0E27EA2D
:1052F00004454FEA1C4704FB07622CEA074C05FBF8
:1053000007F70CFB05F604FB0CFC16EB074642EB1B
:10531000174216EB0C4642EB1C421BEB060658EB01
:105320000202414146EA9E0601D5BDE80189B6194F
:10533000524141EB0101A3F10103BDE801894FEAAC
:1053400014454FEA114724EA054621EA074C05FBBC
:1053500007F406FB07F70CFB06F105FB0CFC11EB51
:10536000074144EB17444FEA124711EB0C4144EB61
:105370001C4422EA074C05FB07F206FB07F70CFB6F
:1053800006F605FB0CFC16EB074642EB174216EB44
:105390000C4642EB1C456A1854F1000148BF7047A7
:1053A000B619524141EB0101A3F10103704795F099
:1053B000000F37D04FEA11424FEA144721EA024664
:1053C00024EA074C02FB07F106FB07F70CFB06F487
:1053D00002FB0CFC14EB074441EB17414FEA154765
:1053E00014EB0C4441EB1C4125EA074C02FB07F58A
:1053F00006FB07F70CFB06F602FB0CFC16EB074658
:1054000045EB174516EB0C4645EB1C42121951F1C2
:10541000000148BF7047B619524141EB0101A3F1A9
:10542000010370474FEA14454FEA114724EA054645
:1054300021EA074C05FB07F106FB07F70CFB06F218
:105440004FF0000605FB0CFC12EB074241EB174145
:1054500012EB0C4251EB1C4148BF7047921841EBD4
:105460000101A3F101037047490050EAC12018BFB0
:1054700004204A0D18BF40F0010040F2FF72B2EB69
:10548000515F08BF40F00200012808BF05207047A7
:1054900030380A2801D201207047002070472DE9DA
:1054A000F04106460F4600F0EFFA041E0D4618BF05
:1054B0000120284320F00040C0F17F6000F1E0406F
:1054C000C00F0ED0301C18BF0120384320F0004020
:1054D000C0F17F6000F1E040C00F04BF0120FEF783
:1054E000E6FF20462946BDE8F081000010B50029FE
:1054F0000AD00878002807D005487844FFF7ACFBAD
:10550000002801D0002010BD0248784410BD0000E2
:105510005E3000005630000021F00042A2F16052DF
:10552000B2F5801F01F0004328BFD2F17F6C0BD988
:105530005FEA001C43EAC20242EB507018BF70479A
:1055400028BF20F001007047B2F5801FBCBF18468D
:1055500070474FEA410C1CF5001F02D2084600F0CC
:10556000DCBD70B500F03CFA00000089FFF7F6BF23
:105570004FF00040A0F58000704700002DE9C041C9
:1055800030B4DFF8A0C23CEA111418BF3CEA13148F
:1055900000F0EC8081EA03051CEA111444EAD5749A
:1055A00018BF1CEA131500F0C780A4EB05044FF0E8
:1055B000004545EAC12145EAC32341EA505143EA87
:1055C000525304F17F74994204F500344FEAC0202D
:1055D0004FEAC22208BF904200F09C804FEA136558
:1055E0000FF24016765D4FEA134506FB05F7C7F14B
:1055F000807706FB07F74FEAD737A7FB03687642A9
:10560000C8F58038A7FB06CE38BFA8F1010807FB14
:1056100008E64FF0000EA6FB028CE6FB03CEDCF1A1
:10562000000CCEF1004E38BFAEF1010EA6FB0C58B7
:105630004FF000074FF00005E6FB0E87A1FB08C600
:10564000A0FB07CE16EB0E0645F10005E1FB076552
:1056500015F1E04E7EBFA4F580345FEA46066D4149
:1056600016F1800745F100054FEA17274FEA066655
:1056700047EA0567A6F1DE46B6F1805F4FEA1525D9
:105680001FD9384624F0010C05EBC471BCF1FE6F44
:1056900001EB0C1102D8F0BCBDE8008124425CBFD4
:1056A00001F5801E9EEAC47F02D4F0BCBDE80081F3
:1056B000244238D4F0BCA1F1C041BDE8004100F063
:1056C000DDB94FEAD22242EA43524FEAD323A7FB85
:1056D00002864FEAD02040EA415007FB03661EEAEB
:1056E0000E0F4FEAD12105FB026658BFA6EB00560C
:1056F000B6EB00564FEA520E4EEAC37E18EB0E0E82
:1057000056EB530EBDD518EB02085E417F1C55F1D8
:105710000005B6E74FF480154FF000074FF0000684
:105720004FF00008ADE7F0BC4FF0000001F1C041C0
:1057300001F00041BDE8008111EA0C1F0CEA1315CD
:1057400000D00CE013EA0C1F00F025804FF00000A1
:10575000F0BC81EA030101F00041BDE80081F0BC2A
:10576000BDE8004181EA030100F088B9F0BCBDE862
:10577000004170B500F034F9097EFC3E00F007B836
:1057800081EA03014FF0000001F00041704781EA17
:10579000030100F073B9F0BCBDE800414FF0000018
:1057A00021497047FFFDFBF9F7F5F4F2F0EEEDEB60
:1057B000E9E8E6E4E3E1E0DEDDDBDAD8D7D5D4D30F
:1057C000D1D0CFCDCCCBCAC8C7C6C5C4C2C1C0BF5B
:1057D000BEBDBCBBBAB9B8B7B6B5B4B3B2B1B0AF61
:1057E000AEADACABAAA9A8A8A7A6A5A4A3A3A2A145
:1057F000A09F9F9E9D9C9C9B9A9999989797969500
:1058000095949393929191908F8F8E8E8D8C8C8B9B
:105810008B8A898988888787868585848483838223
:10582000828181800000FF070000F87F4FEA41037A
:105830004FEA5353A3F58063D3F11E03C8BFD3F1DE
:10584000210C0CDD4FF0004242EAC12242EA5052E4
:1058500032FA03FC8CEAE17CACEBE1707047102B70
:10586000C4BF0020704703F5787CBCF1FF3F04D033
:105870006FF0004282EA2100704770B500F0B0F886
:105880004992248000207047F2E70000DFF848C109
:1058900070B51CEA111E1EBF1CEA13159EEA0C0F00
:1058A00095EA0C0F00F06F8081EA030423EA4C13A1
:1058B0004EEAD47E21EA4C1141F4801143F4801366
:1058C000AE44A1FB024CA0FB0365AEF17F7E36190E
:1058D00055EB0C05A1FB034C4CF10003A0FB021C93
:1058E00016EB0C06654153F10003094218BF46F060
:1058F000010613F4007F0BD14FEA03314FEA053064
:10590000340341EA155140EA16506FF003020AE0F1
:105910004FEAC3214FEAC520F40241EA555140EA5B
:1059200056506FF0020202EB2E4201EB025585EA5F
:10593000CE710AD05FEA440C18BF24F0004450F145
:10594000000041F1000120EAD47040F2FE7C624583
:1059500000D270BDA84214BF4FF080444FF04044C5
:10596000002E08BF0024BEF1806FA8BFA1F1C04186
:10597000BDE8704080F282804FF0000001F1C0412C
:1059800001F0004170479EEA0C0F0CEA131518BF96
:1059900095EA0C0F06D04FF0000081EA030E0EF0DE
:1059A000004170BD00F01CF88900013E00F007B80E
:1059B00000F009B84FEA430C5FEA5C5C08D081EA6A
:1059C000030100F05BB84FEA410C5FEA5C5CF6D182
:1059D0004FF00000014970470000FF070000F87F0A
:1059E0000EF1020E2EF0030E5EF8046B364205D463
:1059F000012A43EB030515F5001F12D8012841EBDE
:105A0000010C1CF5001F0CD80ED14FEAD17C15F506
:105A1000001F0CEB4C0C0CF1020C08BF4CEBD37CC0
:105A200004E04FF0080C01E04FEAD37C0CEB4C058E
:105A300026FA05F606F00706B6F1040C06D20EEBC0
:105A4000860CBDE870404CF0010C6047DFE80CF0BC
:105A5000090B02024FF000414FF00000A1F50021B8
:105A600070BD19461046012851EB010418BFD4F54A
:105A7000001484BF002001F0004170BD0808A0F5AB
:105A800000114FEA310170472DE9F04101F5801C0A
:105A9000BCF5001FC0F2C3804FEA115C21EA0C5133
:105AA0000CF1FD0C41F480115FEA5C0C0CF5C07C3C
:105AB00001D3400049413DA4890241EA9051870247
:105AC0008E0E0A0CA45D04FB04F602FB06F6C6F17A
:105AD0004046A4FB0662F60D46EA422606FB06F4A3
